{
  "_format": "hh-sol-artifact-1",
  "contractName": "StreamingToken",
  "sourceName": "contracts/StreamingToken.sol",
  "abi": [
    {
      "inputs": [],
      "stateMutability": "nonpayable",
      "type": "constructor"
    },
    {
      "inputs": [
        {
          "internalType": "address",
          "name": "spender",
          "type": "address"
        },
        {
          "internalType": "uint256",
          "name": "allowance",
          "type": "uint256"
        },
        {
          "internalType": "uint256",
          "name": "needed",
          "type": "uint256"
        }
      ],
      "name": "ERC20InsufficientAllowance",
      "type": "error"
    },
    {
      "inputs": [
        {
          "internalType": "address",
          "name": "sender",
          "type": "address"
        },
        {
          "internalType": "uint256",
          "name": "balance",
          "type": "uint256"
        },
        {
          "internalType": "uint256",
          "name": "needed",
          "type": "uint256"
        }
      ],
      "name": "ERC20InsufficientBalance",
      "type": "error"
    },
    {
      "inputs": [
        {
          "internalType": "address",
          "name": "approver",
          "type": "address"
        }
      ],
      "name": "ERC20InvalidApprover",
      "type": "error"
    },
    {
      "inputs": [
        {
          "internalType": "address",
          "name": "receiver",
          "type": "address"
        }
      ],
      "name": "ERC20InvalidReceiver",
      "type": "error"
    },
    {
      "inputs": [
        {
          "internalType": "address",
          "name": "sender",
          "type": "address"
        }
      ],
      "name": "ERC20InvalidSender",
      "type": "error"
    },
    {
      "inputs": [
        {
          "internalType": "address",
          "name": "spender",
          "type": "address"
        }
      ],
      "name": "ERC20InvalidSpender",
      "type": "error"
    },
    {
      "inputs": [
        {
          "internalType": "address",
          "name": "owner",
          "type": "address"
        }
      ],
      "name": "OwnableInvalidOwner",
      "type": "error"
    },
    {
      "inputs": [
        {
          "internalType": "address",
          "name": "account",
          "type": "address"
        }
      ],
      "name": "OwnableUnauthorizedAccount",
      "type": "error"
    },
    {
      "anonymous": false,
      "inputs": [
        {
          "indexed": true,
          "internalType": "address",
          "name": "owner",
          "type": "address"
        },
        {
          "indexed": true,
          "internalType": "address",
          "name": "spender",
          "type": "address"
        },
        {
          "indexed": false,
          "internalType": "uint256",
          "name": "value",
          "type": "uint256"
        }
      ],
      "name": "Approval",
      "type": "event"
    },
    {
      "anonymous": false,
      "inputs": [
        {
          "indexed": true,
          "internalType": "address",
          "name": "previousOwner",
          "type": "address"
        },
        {
          "indexed": true,
          "internalType": "address",
          "name": "newOwner",
          "type": "address"
        }
      ],
      "name": "OwnershipTransferred",
      "type": "event"
    },
    {
      "anonymous": false,
      "inputs": [
        {
          "indexed": true,
          "internalType": "address",
          "name": "user",
          "type": "address"
        },
        {
          "indexed": false,
          "internalType": "uint256",
          "name": "amount",
          "type": "uint256"
        }
      ],
      "name": "ReferralRewardGiven",
      "type": "event"
    },
    {
      "anonymous": false,
      "inputs": [
        {
          "indexed": true,
          "internalType": "address",
          "name": "user",
          "type": "address"
        },
        {
          "indexed": false,
          "internalType": "uint256",
          "name": "amount",
          "type": "uint256"
        }
      ],
      "name": "ReviewRewardGiven",
      "type": "event"
    },
    {
      "anonymous": false,
      "inputs": [
        {
          "indexed": true,
          "internalType": "address",
          "name": "user",
          "type": "address"
        },
        {
          "indexed": false,
          "internalType": "uint256",
          "name": "amount",
          "type": "uint256"
        }
      ],
      "name": "RewardGiven",
      "type": "event"
    },
    {
      "anonymous": false,
      "inputs": [
        {
          "indexed": true,
          "internalType": "address",
          "name": "from",
          "type": "address"
        },
        {
          "indexed": true,
          "internalType": "address",
          "name": "to",
          "type": "address"
        },
        {
          "indexed": false,
          "internalType": "uint256",
          "name": "value",
          "type": "uint256"
        }
      ],
      "name": "Transfer",
      "type": "event"
    },
    {
      "anonymous": false,
      "inputs": [
        {
          "indexed": true,
          "internalType": "uint256",
          "name": "movieId",
          "type": "uint256"
        },
        {
          "indexed": false,
          "internalType": "uint256",
          "name": "votes",
          "type": "uint256"
        }
      ],
      "name": "Voted",
      "type": "event"
    },
    {
      "inputs": [
        {
          "internalType": "address",
          "name": "owner",
          "type": "address"
        },
        {
          "internalType": "address",
          "name": "spender",
          "type": "address"
        }
      ],
      "name": "allowance",
      "outputs": [
        {
          "internalType": "uint256",
          "name": "",
          "type": "uint256"
        }
      ],
      "stateMutability": "view",
      "type": "function"
    },
    {
      "inputs": [
        {
          "internalType": "address",
          "name": "spender",
          "type": "address"
        },
        {
          "internalType": "uint256",
          "name": "value",
          "type": "uint256"
        }
      ],
      "name": "approve",
      "outputs": [
        {
          "internalType": "bool",
          "name": "",
          "type": "bool"
        }
      ],
      "stateMutability": "nonpayable",
      "type": "function"
    },
    {
      "inputs": [
        {
          "internalType": "address",
          "name": "account",
          "type": "address"
        }
      ],
      "name": "balanceOf",
      "outputs": [
        {
          "internalType": "uint256",
          "name": "",
          "type": "uint256"
        }
      ],
      "stateMutability": "view",
      "type": "function"
    },
    {
      "inputs": [],
      "name": "decimals",
      "outputs": [
        {
          "internalType": "uint8",
          "name": "",
          "type": "uint8"
        }
      ],
      "stateMutability": "view",
      "type": "function"
    },
    {
      "inputs": [],
      "name": "getAllVotes",
      "outputs": [
        {
          "internalType": "uint256[]",
          "name": "",
          "type": "uint256[]"
        },
        {
          "internalType": "uint256[]",
          "name": "",
          "type": "uint256[]"
        }
      ],
      "stateMutability": "view",
      "type": "function"
    },
    {
      "inputs": [],
      "name": "name",
      "outputs": [
        {
          "internalType": "string",
          "name": "",
          "type": "string"
        }
      ],
      "stateMutability": "view",
      "type": "function"
    },
    {
      "inputs": [],
      "name": "owner",
      "outputs": [
        {
          "internalType": "address",
          "name": "",
          "type": "address"
        }
      ],
      "stateMutability": "view",
      "type": "function"
    },
    {
      "inputs": [
        {
          "internalType": "address",
          "name": "",
          "type": "address"
        }
      ],
      "name": "referrals",
      "outputs": [
        {
          "internalType": "uint256",
          "name": "",
          "type": "uint256"
        }
      ],
      "stateMutability": "view",
      "type": "function"
    },
    {
      "inputs": [],
      "name": "renounceOwnership",
      "outputs": [],
      "stateMutability": "nonpayable",
      "type": "function"
    },
    {
      "inputs": [
        {
          "internalType": "address",
          "name": "",
          "type": "address"
        }
      ],
      "name": "reviewed",
      "outputs": [
        {
          "internalType": "bool",
          "name": "",
          "type": "bool"
        }
      ],
      "stateMutability": "view",
      "type": "function"
    },
    {
      "inputs": [],
      "name": "rewardAmount",
      "outputs": [
        {
          "internalType": "uint256",
          "name": "",
          "type": "uint256"
        }
      ],
      "stateMutability": "view",
      "type": "function"
    },
    {
      "inputs": [
        {
          "internalType": "address",
          "name": "user",
          "type": "address"
        },
        {
          "internalType": "uint256",
          "name": "numberOfReferrals",
          "type": "uint256"
        }
      ],
      "name": "rewardReferral",
      "outputs": [],
      "stateMutability": "nonpayable",
      "type": "function"
    },
    {
      "inputs": [
        {
          "internalType": "address",
          "name": "user",
          "type": "address"
        }
      ],
      "name": "rewardReview",
      "outputs": [],
      "stateMutability": "nonpayable",
      "type": "function"
    },
    {
      "inputs": [
        {
          "internalType": "address",
          "name": "user",
          "type": "address"
        }
      ],
      "name": "rewardUser",
      "outputs": [],
      "stateMutability": "nonpayable",
      "type": "function"
    },
    {
      "inputs": [
        {
          "internalType": "address",
          "name": "",
          "type": "address"
        }
      ],
      "name": "rewarded",
      "outputs": [
        {
          "internalType": "bool",
          "name": "",
          "type": "bool"
        }
      ],
      "stateMutability": "view",
      "type": "function"
    },
    {
      "inputs": [
        {
          "internalType": "uint256",
          "name": "amount",
          "type": "uint256"
        }
      ],
      "name": "setRewardAmount",
      "outputs": [],
      "stateMutability": "nonpayable",
      "type": "function"
    },
    {
      "inputs": [],
      "name": "symbol",
      "outputs": [
        {
          "internalType": "string",
          "name": "",
          "type": "string"
        }
      ],
      "stateMutability": "view",
      "type": "function"
    },
    {
      "inputs": [],
      "name": "totalSupply",
      "outputs": [
        {
          "internalType": "uint256",
          "name": "",
          "type": "uint256"
        }
      ],
      "stateMutability": "view",
      "type": "function"
    },
    {
      "inputs": [],
      "name": "totalVotes",
      "outputs": [
        {
          "internalType": "uint256",
          "name": "",
          "type": "uint256"
        }
      ],
      "stateMutability": "view",
      "type": "function"
    },
    {
      "inputs": [
        {
          "internalType": "address",
          "name": "to",
          "type": "address"
        },
        {
          "internalType": "uint256",
          "name": "value",
          "type": "uint256"
        }
      ],
      "name": "transfer",
      "outputs": [
        {
          "internalType": "bool",
          "name": "",
          "type": "bool"
        }
      ],
      "stateMutability": "nonpayable",
      "type": "function"
    },
    {
      "inputs": [
        {
          "internalType": "address",
          "name": "from",
          "type": "address"
        },
        {
          "internalType": "address",
          "name": "to",
          "type": "address"
        },
        {
          "internalType": "uint256",
          "name": "value",
          "type": "uint256"
        }
      ],
      "name": "transferFrom",
      "outputs": [
        {
          "internalType": "bool",
          "name": "",
          "type": "bool"
        }
      ],
      "stateMutability": "nonpayable",
      "type": "function"
    },
    {
      "inputs": [
        {
          "internalType": "address",
          "name": "newOwner",
          "type": "address"
        }
      ],
      "name": "transferOwnership",
      "outputs": [],
      "stateMutability": "nonpayable",
      "type": "function"
    },
    {
      "inputs": [
        {
          "internalType": "uint256",
          "name": "movieId",
          "type": "uint256"
        }
      ],
      "name": "voteForMovie",
      "outputs": [],
      "stateMutability": "nonpayable",
      "type": "function"
    },
    {
      "inputs": [
        {
          "internalType": "uint256",
          "name": "",
          "type": "uint256"
        }
      ],
      "name": "votes",
      "outputs": [
        {
          "internalType": "uint256",
          "name": "",
          "type": "uint256"
        }
      ],
      "stateMutability": "view",
      "type": "function"
    }
  ],
  "bytecode": "0x60806040523480156200001157600080fd5b50336040518060400160405280600e81526020017f53747265616d696e67546f6b656e0000000000000000000000000000000000008152506040518060400160405280600381526020017f53544b000000000000000000000000000000000000000000000000000000000081525081600390816200009091906200075b565b508060049081620000a291906200075b565b505050600073ffffffffffffffffffffffffffffffffffffffff168173ffffffffffffffffffffffffffffffffffffffff16036200011a5760006040517f1e4fbdf700000000000000000000000000000000000000000000000000000000815260040162000111919062000887565b60405180910390fd5b6200012b816200015e60201b60201c565b50620001483369d3c21bcecceda10000006200022460201b60201c565b68056bc75e2d6310000060068190555062000979565b6000600560009054906101000a900473ffffffffffffffffffffffffffffffffffffffff16905081600560006101000a81548173ffffffffffffffffffffffffffffffffffffffff021916908373ffffffffffffffffffffffffffffffffffffffff1602179055508173ffffffffffffffffffffffffffffffffffffffff168173ffffffffffffffffffffffffffffffffffffffff167f8be0079c531659141344cd1fd0a4f28419497f9722a3daafe3b4186f6b6457e060405160405180910390a35050565b600073ffffffffffffffffffffffffffffffffffffffff168273ffffffffffffffffffffffffffffffffffffffff1603620002995760006040517fec442f0500000000000000000000000000000000000000000000000000000000815260040162000290919062000887565b60405180910390fd5b620002ad60008383620002b160201b60201c565b5050565b600073ffffffffffffffffffffffffffffffffffffffff168373ffffffffffffffffffffffffffffffffffffffff160362000307578060026000828254620002fa9190620008d3565b92505081905550620003dd565b60008060008573ffffffffffffffffffffffffffffffffffffffff1673ffffffffffffffffffffffffffffffffffffffff1681526020019081526020016000205490508181101562000396578381836040517fe450d38c0000000000000000000000000000000000000000000000000000000081526004016200038d939291906200091f565b60405180910390fd5b8181036000808673ffffffffffffffffffffffffffffffffffffffff1673ffffffffffffffffffffffffffffffffffffffff16815260200190815260200160002081905550505b600073ffffffffffffffffffffffffffffffffffffffff168273ffffffffffffffffffffffffffffffffffffffff160362000428578060026000828254039250508190555062000475565b806000808473ffffffffffffffffffffffffffffffffffffffff1673ffffffffffffffffffffffffffffffffffffffff168152602001908152602001600020600082825401925050819055505b8173ffffffffffffffffffffffffffffffffffffffff168373ffffffffffffffffffffffffffffffffffffffff167fddf252ad1be2c89b69c2b068fc378daa952ba7f163c4a11628f55a4df523b3ef83604051620004d491906200095c565b60405180910390a3505050565b600081519050919050565b7f4e487b7100000000000000000000000000000000000000000000000000000000600052604160045260246000fd5b7f4e487b7100000000000000000000000000000000000000000000000000000000600052602260045260246000fd5b600060028204905060018216806200056357607f821691505b6020821081036200057957620005786200051b565b5b50919050565b60008190508160005260206000209050919050565b60006020601f8301049050919050565b600082821b905092915050565b600060088302620005e37fffffffffffffffffffffffffffffffffffffffffffffffffffffffffffffffff82620005a4565b620005ef8683620005a4565b95508019841693508086168417925050509392505050565b6000819050919050565b6000819050919050565b60006200063c62000636620006308462000607565b62000611565b62000607565b9050919050565b6000819050919050565b62000658836200061b565b62000670620006678262000643565b848454620005b1565b825550505050565b600090565b6200068762000678565b620006948184846200064d565b505050565b5b81811015620006bc57620006b06000826200067d565b6001810190506200069a565b5050565b601f8211156200070b57620006d5816200057f565b620006e08462000594565b81016020851015620006f0578190505b62000708620006ff8562000594565b83018262000699565b50505b505050565b600082821c905092915050565b6000620007306000198460080262000710565b1980831691505092915050565b60006200074b83836200071d565b9150826002028217905092915050565b6200076682620004e1565b67ffffffffffffffff811115620007825762000781620004ec565b5b6200078e82546200054a565b6200079b828285620006c0565b600060209050601f831160018114620007d35760008415620007be578287015190505b620007ca85826200073d565b8655506200083a565b601f198416620007e3866200057f565b60005b828110156200080d57848901518255600182019150602085019450602081019050620007e6565b868310156200082d578489015162000829601f8916826200071d565b8355505b6001600288020188555050505b505050505050565b600073ffffffffffffffffffffffffffffffffffffffff82169050919050565b60006200086f8262000842565b9050919050565b620008818162000862565b82525050565b60006020820190506200089e600083018462000876565b92915050565b7f4e487b7100000000000000000000000000000000000000000000000000000000600052601160045260246000fd5b6000620008e08262000607565b9150620008ed8362000607565b9250828201905080821115620009085762000907620008a4565b5b92915050565b620009198162000607565b82525050565b600060608201905062000936600083018662000876565b6200094560208301856200090e565b6200095460408301846200090e565b949350505050565b60006020820190506200097360008301846200090e565b92915050565b611dda80620009896000396000f3fe608060405234801561001057600080fd5b50600436106101585760003560e01c80638da5cb5b116100c3578063a9059cbb1161007c578063a9059cbb146103de578063a9200d5e1461040e578063aacfdf491461042a578063dd62ed3e14610446578063f2fde38b14610476578063f7b2a7be1461049257610158565b80638da5cb5b1461031e57806395d89b411461033c5780639ca423b31461035a5780639f1940be1461038a578063a6afd7db146103a6578063a8a65a78146103c257610158565b8063379f53e311610115578063379f53e3146102355780635df813301461026557806370a0823114610295578063714bf908146102c5578063715018a6146102f5578063851b6ef2146102ff57610158565b806306fdde031461015d578063095ea7b31461017b5780630d15fd77146101ab57806318160ddd146101c957806323b872dd146101e7578063313ce56714610217575b600080fd5b6101656104b0565b60405161017291906116ba565b60405180910390f35b61019560048036038101906101909190611775565b610542565b6040516101a291906117d0565b60405180910390f35b6101b3610565565b6040516101c091906117fa565b60405180910390f35b6101d161056b565b6040516101de91906117fa565b60405180910390f35b61020160048036038101906101fc9190611815565b610575565b60405161020e91906117d0565b60405180910390f35b61021f6105a4565b60405161022c9190611884565b60405180910390f35b61024f600480360381019061024a919061189f565b6105ad565b60405161025c91906117d0565b60405180910390f35b61027f600480360381019061027a91906118cc565b6105cd565b60405161028c91906117fa565b60405180910390f35b6102af60048036038101906102aa919061189f565b6105e5565b6040516102bc91906117fa565b60405180910390f35b6102df60048036038101906102da919061189f565b61062d565b6040516102ec91906117d0565b60405180910390f35b6102fd61064d565b005b610307610661565b6040516103159291906119b7565b60405180910390f35b6103266107c7565b60405161033391906119fd565b60405180910390f35b6103446107f1565b60405161035191906116ba565b60405180910390f35b610374600480360381019061036f919061189f565b610883565b60405161038191906117fa565b60405180910390f35b6103a4600480360381019061039f9190611775565b61089b565b005b6103c060048036038101906103bb919061189f565b61096f565b005b6103dc60048036038101906103d791906118cc565b610abb565b005b6103f860048036038101906103f39190611775565b610acd565b60405161040591906117d0565b60405180910390f35b610428600480360381019061042391906118cc565b610af0565b005b610444600480360381019061043f919061189f565b610bdc565b005b610460600480360381019061045b9190611a18565b610d28565b60405161046d91906117fa565b60405180910390f35b610490600480360381019061048b919061189f565b610daf565b005b61049a610e35565b6040516104a791906117fa565b60405180910390f35b6060600380546104bf90611a87565b80601f01602080910402602001604051908101604052809291908181526020018280546104eb90611a87565b80156105385780601f1061050d57610100808354040283529160200191610538565b820191906000526020600020905b81548152906001019060200180831161051b57829003601f168201915b5050505050905090565b60008061054d610e3b565b905061055a818585610e43565b600191505092915050565b600b5481565b6000600254905090565b600080610580610e3b565b905061058d858285610e55565b610598858585610ee9565b60019150509392505050565b60006012905090565b60076020528060005260406000206000915054906101000a900460ff1681565b600a6020528060005260406000206000915090505481565b60008060008373ffffffffffffffffffffffffffffffffffffffff1673ffffffffffffffffffffffffffffffffffffffff168152602001908152602001600020549050919050565b60086020528060005260406000206000915054906101000a900460ff1681565b610655610fdd565b61065f6000611064565b565b6060806000600c8054905067ffffffffffffffff81111561068557610684611ab8565b5b6040519080825280602002602001820160405280156106b35781602001602082028036833780820191505090505b5090506000600c8054905067ffffffffffffffff8111156106d7576106d6611ab8565b5b6040519080825280602002602001820160405280156107055781602001602082028036833780820191505090505b50905060005b600c805490508110156107ba57600c818154811061072c5761072b611ae7565b5b906000526020600020015483828151811061074a57610749611ae7565b5b602002602001018181525050600a6000600c838154811061076e5761076d611ae7565b5b906000526020600020015481526020019081526020016000205482828151811061079b5761079a611ae7565b5b60200260200101818152505080806107b290611b45565b91505061070b565b5081819350935050509091565b6000600560009054906101000a900473ffffffffffffffffffffffffffffffffffffffff16905090565b60606004805461080090611a87565b80601f016020809104026020016040519081016040528092919081815260200182805461082c90611a87565b80156108795780601f1061084e57610100808354040283529160200191610879565b820191906000526020600020905b81548152906001019060200180831161085c57829003601f168201915b5050505050905090565b60096020528060005260406000206000915090505481565b6108a3610fdd565b6108ba82826006546108b59190611b8d565b61112a565b80600960008473ffffffffffffffffffffffffffffffffffffffff1673ffffffffffffffffffffffffffffffffffffffff16815260200190815260200160002060008282546109099190611bcf565b925050819055508173ffffffffffffffffffffffffffffffffffffffff167ffe7d7331489ebf852388bc5d77e6151c138616ac85a626c5764549779bee0267826006546109569190611b8d565b60405161096391906117fa565b60405180910390a25050565b610977610fdd565b600760008273ffffffffffffffffffffffffffffffffffffffff1673ffffffffffffffffffffffffffffffffffffffff16815260200190815260200160002060009054906101000a900460ff1615610a04576040517f08c379a00000000000000000000000000000000000000000000000000000000081526004016109fb90611c4f565b60405180910390fd5b610a108160065461112a565b6001600760008373ffffffffffffffffffffffffffffffffffffffff1673ffffffffffffffffffffffffffffffffffffffff16815260200190815260200160002060006101000a81548160ff0219169083151502179055508073ffffffffffffffffffffffffffffffffffffffff167f3ad0c8d1bbd63d54c5f14180eae95cab7c2420b2dbb90603a6e5d206668f52ec600654604051610ab091906117fa565b60405180910390a250565b610ac3610fdd565b8060068190555050565b600080610ad8610e3b565b9050610ae5818585610ee9565b600191505092915050565b600654610afc336105e5565b1015610b3d576040517f08c379a0000000000000000000000000000000000000000000000000000000008152600401610b3490611cbb565b60405180910390fd5b610b49336006546111ac565b6001600a60008381526020019081526020016000206000828254610b6d9190611bcf565b925050819055506001600b6000828254610b879190611bcf565b92505081905550807f84a5508ca0d85b42a876e75a9126f3ae7b43617ce60b170bf8805d34630bc654600a600084815260200190815260200160002054604051610bd191906117fa565b60405180910390a250565b610be4610fdd565b600860008273ffffffffffffffffffffffffffffffffffffffff1673ffffffffffffffffffffffffffffffffffffffff16815260200190815260200160002060009054906101000a900460ff1615610c71576040517f08c379a0000000000000000000000000000000000000000000000000000000008152600401610c6890611d4d565b60405180910390fd5b610c7d8160065461112a565b6001600860008373ffffffffffffffffffffffffffffffffffffffff1673ffffffffffffffffffffffffffffffffffffffff16815260200190815260200160002060006101000a81548160ff0219169083151502179055508073ffffffffffffffffffffffffffffffffffffffff167f588a9ba06ec99e6bcc568f02230bc58a6aac2cc0b612ba84e5ac703ad8effc9a600654604051610d1d91906117fa565b60405180910390a250565b6000600160008473ffffffffffffffffffffffffffffffffffffffff1673ffffffffffffffffffffffffffffffffffffffff16815260200190815260200160002060008373ffffffffffffffffffffffffffffffffffffffff1673ffffffffffffffffffffffffffffffffffffffff16815260200190815260200160002054905092915050565b610db7610fdd565b600073ffffffffffffffffffffffffffffffffffffffff168173ffffffffffffffffffffffffffffffffffffffff1603610e295760006040517f1e4fbdf7000000000000000000000000000000000000000000000000000000008152600401610e2091906119fd565b60405180910390fd5b610e3281611064565b50565b60065481565b600033905090565b610e50838383600161122e565b505050565b6000610e618484610d28565b90507fffffffffffffffffffffffffffffffffffffffffffffffffffffffffffffffff8114610ee35781811015610ed3578281836040517ffb8f41b2000000000000000000000000000000000000000000000000000000008152600401610eca93929190611d6d565b60405180910390fd5b610ee28484848403600061122e565b5b50505050565b600073ffffffffffffffffffffffffffffffffffffffff168373ffffffffffffffffffffffffffffffffffffffff1603610f5b5760006040517f96c6fd1e000000000000000000000000000000000000000000000000000000008152600401610f5291906119fd565b60405180910390fd5b600073ffffffffffffffffffffffffffffffffffffffff168273ffffffffffffffffffffffffffffffffffffffff1603610fcd5760006040517fec442f05000000000000000000000000000000000000000000000000000000008152600401610fc491906119fd565b60405180910390fd5b610fd8838383611405565b505050565b610fe5610e3b565b73ffffffffffffffffffffffffffffffffffffffff166110036107c7565b73ffffffffffffffffffffffffffffffffffffffff161461106257611026610e3b565b6040517f118cdaa700000000000000000000000000000000000000000000000000000000815260040161105991906119fd565b60405180910390fd5b565b6000600560009054906101000a900473ffffffffffffffffffffffffffffffffffffffff16905081600560006101000a81548173ffffffffffffffffffffffffffffffffffffffff021916908373ffffffffffffffffffffffffffffffffffffffff1602179055508173ffffffffffffffffffffffffffffffffffffffff168173ffffffffffffffffffffffffffffffffffffffff167f8be0079c531659141344cd1fd0a4f28419497f9722a3daafe3b4186f6b6457e060405160405180910390a35050565b600073ffffffffffffffffffffffffffffffffffffffff168273ffffffffffffffffffffffffffffffffffffffff160361119c5760006040517fec442f0500000000000000000000000000000000000000000000000000000000815260040161119391906119fd565b60405180910390fd5b6111a860008383611405565b5050565b600073ffffffffffffffffffffffffffffffffffffffff168273ffffffffffffffffffffffffffffffffffffffff160361121e5760006040517f96c6fd1e00000000000000000000000000000000000000000000000000000000815260040161121591906119fd565b60405180910390fd5b61122a82600083611405565b5050565b600073ffffffffffffffffffffffffffffffffffffffff168473ffffffffffffffffffffffffffffffffffffffff16036112a05760006040517fe602df0500000000000000000000000000000000000000000000000000000000815260040161129791906119fd565b60405180910390fd5b600073ffffffffffffffffffffffffffffffffffffffff168373ffffffffffffffffffffffffffffffffffffffff16036113125760006040517f94280d6200000000000000000000000000000000000000000000000000000000815260040161130991906119fd565b60405180910390fd5b81600160008673ffffffffffffffffffffffffffffffffffffffff1673ffffffffffffffffffffffffffffffffffffffff16815260200190815260200160002060008573ffffffffffffffffffffffffffffffffffffffff1673ffffffffffffffffffffffffffffffffffffffff1681526020019081526020016000208190555080156113ff578273ffffffffffffffffffffffffffffffffffffffff168473ffffffffffffffffffffffffffffffffffffffff167f8c5be1e5ebec7d5bd14f71427d1e84f3dd0314c0f7b2291e5b200ac8c7c3b925846040516113f691906117fa565b60405180910390a35b50505050565b600073ffffffffffffffffffffffffffffffffffffffff168373ffffffffffffffffffffffffffffffffffffffff160361145757806002600082825461144b9190611bcf565b9250508190555061152a565b60008060008573ffffffffffffffffffffffffffffffffffffffff1673ffffffffffffffffffffffffffffffffffffffff168152602001908152602001600020549050818110156114e3578381836040517fe450d38c0000000000000000000000000000000000000000000000000000000081526004016114da93929190611d6d565b60405180910390fd5b8181036000808673ffffffffffffffffffffffffffffffffffffffff1673ffffffffffffffffffffffffffffffffffffffff16815260200190815260200160002081905550505b600073ffffffffffffffffffffffffffffffffffffffff168273ffffffffffffffffffffffffffffffffffffffff160361157357806002600082825403925050819055506115c0565b806000808473ffffffffffffffffffffffffffffffffffffffff1673ffffffffffffffffffffffffffffffffffffffff168152602001908152602001600020600082825401925050819055505b8173ffffffffffffffffffffffffffffffffffffffff168373ffffffffffffffffffffffffffffffffffffffff167fddf252ad1be2c89b69c2b068fc378daa952ba7f163c4a11628f55a4df523b3ef8360405161161d91906117fa565b60405180910390a3505050565b600081519050919050565b600082825260208201905092915050565b60005b83811015611664578082015181840152602081019050611649565b60008484015250505050565b6000601f19601f8301169050919050565b600061168c8261162a565b6116968185611635565b93506116a6818560208601611646565b6116af81611670565b840191505092915050565b600060208201905081810360008301526116d48184611681565b905092915050565b600080fd5b600073ffffffffffffffffffffffffffffffffffffffff82169050919050565b600061170c826116e1565b9050919050565b61171c81611701565b811461172757600080fd5b50565b60008135905061173981611713565b92915050565b6000819050919050565b6117528161173f565b811461175d57600080fd5b50565b60008135905061176f81611749565b92915050565b6000806040838503121561178c5761178b6116dc565b5b600061179a8582860161172a565b92505060206117ab85828601611760565b9150509250929050565b60008115159050919050565b6117ca816117b5565b82525050565b60006020820190506117e560008301846117c1565b92915050565b6117f48161173f565b82525050565b600060208201905061180f60008301846117eb565b92915050565b60008060006060848603121561182e5761182d6116dc565b5b600061183c8682870161172a565b935050602061184d8682870161172a565b925050604061185e86828701611760565b9150509250925092565b600060ff82169050919050565b61187e81611868565b82525050565b60006020820190506118996000830184611875565b92915050565b6000602082840312156118b5576118b46116dc565b5b60006118c38482850161172a565b91505092915050565b6000602082840312156118e2576118e16116dc565b5b60006118f084828501611760565b91505092915050565b600081519050919050565b600082825260208201905092915050565b6000819050602082019050919050565b61192e8161173f565b82525050565b60006119408383611925565b60208301905092915050565b6000602082019050919050565b6000611964826118f9565b61196e8185611904565b935061197983611915565b8060005b838110156119aa5781516119918882611934565b975061199c8361194c565b92505060018101905061197d565b5085935050505092915050565b600060408201905081810360008301526119d18185611959565b905081810360208301526119e58184611959565b90509392505050565b6119f781611701565b82525050565b6000602082019050611a1260008301846119ee565b92915050565b60008060408385031215611a2f57611a2e6116dc565b5b6000611a3d8582860161172a565b9250506020611a4e8582860161172a565b9150509250929050565b7f4e487b7100000000000000000000000000000000000000000000000000000000600052602260045260246000fd5b60006002820490506001821680611a9f57607f821691505b602082108103611ab257611ab1611a58565b5b50919050565b7f4e487b7100000000000000000000000000000000000000000000000000000000600052604160045260246000fd5b7f4e487b7100000000000000000000000000000000000000000000000000000000600052603260045260246000fd5b7f4e487b7100000000000000000000000000000000000000000000000000000000600052601160045260246000fd5b6000611b508261173f565b91507fffffffffffffffffffffffffffffffffffffffffffffffffffffffffffffffff8203611b8257611b81611b16565b5b600182019050919050565b6000611b988261173f565b9150611ba38361173f565b9250828202611bb18161173f565b91508282048414831517611bc857611bc7611b16565b5b5092915050565b6000611bda8261173f565b9150611be58361173f565b9250828201905080821115611bfd57611bfc611b16565b5b92915050565b7f557365722068617320616c7265616479206265656e2072657761726465640000600082015250565b6000611c39601e83611635565b9150611c4482611c03565b602082019050919050565b60006020820190508181036000830152611c6881611c2c565b9050919050565b7f4e6f7420656e6f75676820746f6b656e7320746f20766f746500000000000000600082015250565b6000611ca5601983611635565b9150611cb082611c6f565b602082019050919050565b60006020820190508181036000830152611cd481611c98565b9050919050565b7f557365722068617320616c7265616479206265656e207265776172646564206660008201527f6f72207265766965770000000000000000000000000000000000000000000000602082015250565b6000611d37602983611635565b9150611d4282611cdb565b604082019050919050565b60006020820190508181036000830152611d6681611d2a565b9050919050565b6000606082019050611d8260008301866119ee565b611d8f60208301856117eb565b611d9c60408301846117eb565b94935050505056fea2646970667358221220c33a6269c0602edb14ba7e0b98bd0142bc862dfa4beca9cf13c842dd0e8253ba64736f6c63430008140033",
  "linkReferences": {},
  "deployedLinkReferences": {}
}